{
  "contractName": "TodoList",
  "abi": [
    {
      "constant": true,
      "inputs": [],
      "name": "taskCount",
      "outputs": [
        {
          "name": "",
          "type": "uint256"
        }
      ],
      "payable": false,
      "stateMutability": "view",
      "type": "function"
    }
  ],
  "bytecode": "0x608060405260008055348015601357600080fd5b50609e806100226000396000f3fe608060405260043610603f576000357c0100000000000000000000000000000000000000000000000000000000900463ffffffff168063b6cb58a5146044575b600080fd5b348015604f57600080fd5b506056606c565b6040518082815260200191505060405180910390f35b6000548156fea165627a7a7230582062fce1cdfe2b4852488161c625d12162319853327e3105fd1e97fcadcef20f130029",
  "source": "pragma solidity ^0.5.0;\n\ncontract TodoList {\n\n    // taskCount scope: entire smart contract \n    uint public taskCount = 0; //state variable written to storage on the blockchain - changes smart contract state\n\n    //public creates a taskCount () that allows accesss to variable outside of smart contract \n}\n    \n",
  "sourcePath": "/Users/nadani/code/dapp-blockchain-todo/eth-todo-list/contracts/TodoList.sol",
  "compiler": {
    "name": "solc",
    "version": "0.5.0+commit.1d4f565a.Emscripten.clang"
  },
  "schemaVersion": "3.0.1",
  "updatedAt": "2022-03-23T23:36:35.423Z",
  "devdoc": {
    "methods": {}
  },
  "userdoc": {
    "methods": {}
  }
}